{
  "abi": [
    {
      "type": "constructor",
      "inputs": [
        {
          "name": "_identityRegistry",
          "type": "address",
          "internalType": "address"
        },
        {
          "name": "_serviceRegistry",
          "type": "address",
          "internalType": "address"
        }
      ],
      "stateMutability": "nonpayable"
    },
    {
      "type": "function",
      "name": "ECOSYSTEM_METADATA_KEY",
      "inputs": [],
      "outputs": [
        {
          "name": "",
          "type": "string",
          "internalType": "string"
        }
      ],
      "stateMutability": "view"
    },
    {
      "type": "function",
      "name": "ECOSYSTEM_METADATA_VALUE",
      "inputs": [],
      "outputs": [
        {
          "name": "",
          "type": "bytes",
          "internalType": "bytes"
        }
      ],
      "stateMutability": "view"
    },
    {
      "type": "function",
      "name": "PROXY_IDENTITY_REGISTRY_BRIDGER",
      "inputs": [],
      "outputs": [
        {
          "name": "",
          "type": "bytes32",
          "internalType": "bytes32"
        }
      ],
      "stateMutability": "view"
    },
    {
      "type": "function",
      "name": "SERVICE_ID_METADATA_KEY",
      "inputs": [],
      "outputs": [
        {
          "name": "",
          "type": "string",
          "internalType": "string"
        }
      ],
      "stateMutability": "view"
    },
    {
      "type": "function",
      "name": "SERVICE_REGISTRY_METADATA_KEY",
      "inputs": [],
      "outputs": [
        {
          "name": "",
          "type": "string",
          "internalType": "string"
        }
      ],
      "stateMutability": "view"
    },
    {
      "type": "function",
      "name": "VERSION",
      "inputs": [],
      "outputs": [
        {
          "name": "",
          "type": "string",
          "internalType": "string"
        }
      ],
      "stateMutability": "view"
    },
    {
      "type": "function",
      "name": "baseURI",
      "inputs": [],
      "outputs": [
        {
          "name": "",
          "type": "string",
          "internalType": "string"
        }
      ],
      "stateMutability": "view"
    },
    {
      "type": "function",
      "name": "changeBaseURI",
      "inputs": [
        {
          "name": "newBaseURI",
          "type": "string",
          "internalType": "string"
        }
      ],
      "outputs": [],
      "stateMutability": "nonpayable"
    },
    {
      "type": "function",
      "name": "changeImplementation",
      "inputs": [
        {
          "name": "implementation",
          "type": "address",
          "internalType": "address"
        }
      ],
      "outputs": [],
      "stateMutability": "nonpayable"
    },
    {
      "type": "function",
      "name": "changeOwner",
      "inputs": [
        {
          "name": "newOwner",
          "type": "address",
          "internalType": "address"
        }
      ],
      "outputs": [],
      "stateMutability": "nonpayable"
    },
    {
      "type": "function",
      "name": "getAgentURI",
      "inputs": [
        {
          "name": "serviceId",
          "type": "uint256",
          "internalType": "uint256"
        }
      ],
      "outputs": [
        {
          "name": "",
          "type": "string",
          "internalType": "string"
        }
      ],
      "stateMutability": "view"
    },
    {
      "type": "function",
      "name": "identityRegistry",
      "inputs": [],
      "outputs": [
        {
          "name": "",
          "type": "address",
          "internalType": "address"
        }
      ],
      "stateMutability": "view"
    },
    {
      "type": "function",
      "name": "initialize",
      "inputs": [
        {
          "name": "_baseURI",
          "type": "string",
          "internalType": "string"
        }
      ],
      "outputs": [],
      "stateMutability": "nonpayable"
    },
    {
      "type": "function",
      "name": "linkServiceIdAgentIds",
      "inputs": [
        {
          "name": "numServices",
          "type": "uint256",
          "internalType": "uint256"
        }
      ],
      "outputs": [
        {
          "name": "agentIds",
          "type": "uint256[]",
          "internalType": "uint256[]"
        }
      ],
      "stateMutability": "nonpayable"
    },
    {
      "type": "function",
      "name": "mapMultisigAgentIds",
      "inputs": [
        {
          "name": "",
          "type": "address",
          "internalType": "address"
        }
      ],
      "outputs": [
        {
          "name": "",
          "type": "uint256",
          "internalType": "uint256"
        }
      ],
      "stateMutability": "view"
    },
    {
      "type": "function",
      "name": "mapServiceIdAgentIds",
      "inputs": [
        {
          "name": "",
          "type": "uint256",
          "internalType": "uint256"
        }
      ],
      "outputs": [
        {
          "name": "",
          "type": "uint256",
          "internalType": "uint256"
        }
      ],
      "stateMutability": "view"
    },
    {
      "type": "function",
      "name": "onERC721Received",
      "inputs": [
        {
          "name": "",
          "type": "address",
          "internalType": "address"
        },
        {
          "name": "",
          "type": "address",
          "internalType": "address"
        },
        {
          "name": "",
          "type": "uint256",
          "internalType": "uint256"
        },
        {
          "name": "",
          "type": "bytes",
          "internalType": "bytes"
        }
      ],
      "outputs": [
        {
          "name": "",
          "type": "bytes4",
          "internalType": "bytes4"
        }
      ],
      "stateMutability": "nonpayable"
    },
    {
      "type": "function",
      "name": "owner",
      "inputs": [],
      "outputs": [
        {
          "name": "",
          "type": "address",
          "internalType": "address"
        }
      ],
      "stateMutability": "view"
    },
    {
      "type": "function",
      "name": "register",
      "inputs": [
        {
          "name": "serviceId",
          "type": "uint256",
          "internalType": "uint256"
        }
      ],
      "outputs": [
        {
          "name": "agentId",
          "type": "uint256",
          "internalType": "uint256"
        }
      ],
      "stateMutability": "nonpayable"
    },
    {
      "type": "function",
      "name": "serviceManager",
      "inputs": [],
      "outputs": [
        {
          "name": "",
          "type": "address",
          "internalType": "address"
        }
      ],
      "stateMutability": "view"
    },
    {
      "type": "function",
      "name": "serviceRegistry",
      "inputs": [],
      "outputs": [
        {
          "name": "",
          "type": "address",
          "internalType": "address"
        }
      ],
      "stateMutability": "view"
    },
    {
      "type": "function",
      "name": "setAgentWallet",
      "inputs": [
        {
          "name": "deadline",
          "type": "uint256",
          "internalType": "uint256"
        },
        {
          "name": "signature",
          "type": "bytes",
          "internalType": "bytes"
        }
      ],
      "outputs": [],
      "stateMutability": "nonpayable"
    },
    {
      "type": "function",
      "name": "setMetadata",
      "inputs": [
        {
          "name": "metadataKey",
          "type": "string",
          "internalType": "string"
        },
        {
          "name": "metadataValue",
          "type": "bytes",
          "internalType": "bytes"
        }
      ],
      "outputs": [],
      "stateMutability": "nonpayable"
    },
    {
      "type": "function",
      "name": "startLinkServiceId",
      "inputs": [],
      "outputs": [
        {
          "name": "",
          "type": "uint256",
          "internalType": "uint256"
        }
      ],
      "stateMutability": "view"
    },
    {
      "type": "function",
      "name": "unsetAgentWallet",
      "inputs": [],
      "outputs": [],
      "stateMutability": "nonpayable"
    },
    {
      "type": "function",
      "name": "updateAgentWallet",
      "inputs": [
        {
          "name": "serviceId",
          "type": "uint256",
          "internalType": "uint256"
        },
        {
          "name": "oldMultisig",
          "type": "address",
          "internalType": "address"
        },
        {
          "name": "newMultisig",
          "type": "address",
          "internalType": "address"
        }
      ],
      "outputs": [],
      "stateMutability": "nonpayable"
    },
    {
      "type": "event",
      "name": "AgentMultisigUpdated",
      "inputs": [
        {
          "name": "serviceId",
          "type": "uint256",
          "indexed": true,
          "internalType": "uint256"
        },
        {
          "name": "agentId",
          "type": "uint256",
          "indexed": true,
          "internalType": "uint256"
        },
        {
          "name": "oldMultisig",
          "type": "address",
          "indexed": false,
          "internalType": "address"
        },
        {
          "name": "newMultisig",
          "type": "address",
          "indexed": true,
          "internalType": "address"
        }
      ],
      "anonymous": false
    },
    {
      "type": "event",
      "name": "AgentWalletSet",
      "inputs": [
        {
          "name": "serviceId",
          "type": "uint256",
          "indexed": true,
          "internalType": "uint256"
        },
        {
          "name": "agentId",
          "type": "uint256",
          "indexed": true,
          "internalType": "uint256"
        },
        {
          "name": "multisig",
          "type": "address",
          "indexed": true,
          "internalType": "address"
        }
      ],
      "anonymous": false
    },
    {
      "type": "event",
      "name": "BaseURIUpdated",
      "inputs": [
        {
          "name": "baseURI",
          "type": "string",
          "indexed": false,
          "internalType": "string"
        }
      ],
      "anonymous": false
    },
    {
      "type": "event",
      "name": "ImplementationUpdated",
      "inputs": [
        {
          "name": "implementation",
          "type": "address",
          "indexed": true,
          "internalType": "address"
        }
      ],
      "anonymous": false
    },
    {
      "type": "event",
      "name": "MetadataSet",
      "inputs": [
        {
          "name": "serviceId",
          "type": "uint256",
          "indexed": true,
          "internalType": "uint256"
        },
        {
          "name": "agentId",
          "type": "uint256",
          "indexed": true,
          "internalType": "uint256"
        },
        {
          "name": "metadataKey",
          "type": "string",
          "indexed": false,
          "internalType": "string"
        },
        {
          "name": "metadataValue",
          "type": "bytes",
          "indexed": false,
          "internalType": "bytes"
        }
      ],
      "anonymous": false
    },
    {
      "type": "event",
      "name": "OwnerUpdated",
      "inputs": [
        {
          "name": "owner",
          "type": "address",
          "indexed": true,
          "internalType": "address"
        }
      ],
      "anonymous": false
    },
    {
      "type": "event",
      "name": "ServiceAgentLinked",
      "inputs": [
        {
          "name": "serviceId",
          "type": "uint256",
          "indexed": true,
          "internalType": "uint256"
        },
        {
          "name": "agentId",
          "type": "uint256",
          "indexed": true,
          "internalType": "uint256"
        }
      ],
      "anonymous": false
    },
    {
      "type": "event",
      "name": "StartLinkServiceIdUpdated",
      "inputs": [
        {
          "name": "serviceId",
          "type": "uint256",
          "indexed": true,
          "internalType": "uint256"
        },
        {
          "name": "linkedAll",
          "type": "bool",
          "indexed": false,
          "internalType": "bool"
        }
      ],
      "anonymous": false
    },
    {
      "type": "error",
      "name": "AlreadyInitialized",
      "inputs": []
    },
    {
      "type": "error",
      "name": "ManagerOnly",
      "inputs": [
        {
          "name": "sender",
          "type": "address",
          "internalType": "address"
        },
        {
          "name": "manager",
          "type": "address",
          "internalType": "address"
        }
      ]
    },
    {
      "type": "error",
      "name": "OwnerOnly",
      "inputs": [
        {
          "name": "sender",
          "type": "address",
          "internalType": "address"
        },
        {
          "name": "owner",
          "type": "address",
          "internalType": "address"
        }
      ]
    },
    {
      "type": "error",
      "name": "ReentrancyGuard",
      "inputs": []
    },
    {
      "type": "error",
      "name": "WrongMetadataKey",
      "inputs": [
        {
          "name": "metadataKey",
          "type": "string",
          "internalType": "string"
        }
      ]
    },
    {
      "type": "error",
      "name": "ZeroAddress",
      "inputs": []
    },
    {
      "type": "error",
      "name": "ZeroValue",
      "inputs": []
    }
  ],
  "bytecode": {
    "object": "0x60e06040526001600355348015610014575f5ffd5b506040516120a13803806120a18339810160408190526100339161010f565b6001600160a01b038216158061005057506001600160a01b038116155b1561006e5760405163d92e233d60e01b815260040160405180910390fd5b6001600160a01b03808316608052811660c08190526040805163481c6a7560e01b8152905163481c6a75916004808201926020929091908290030181865afa1580156100bc573d5f5f3e3d5ffd5b505050506040513d601f19601f820116820180604052508101906100e09190610140565b6001600160a01b031660a052506101609050565b80516001600160a01b038116811461010a575f5ffd5b919050565b5f5f60408385031215610120575f5ffd5b610129836100f4565b9150610137602084016100f4565b90509250929050565b5f60208284031215610150575f5ffd5b610159826100f4565b9392505050565b60805160a05160c051611eb56101ec5f395f818161037f015281816105c00152818161079f01526111e401525f81816102f501528181610f1d01528181610f5f01528181610fec015261102e01525f81816101ca01528181610a3101528181610c9901528181610d89015281816112d70152818161136701528181611446015261156d0152611eb55ff3fe608060405234801561000f575f5ffd5b50600436106101a5575f3560e01c80637fe627bb116100e8578063e0e3e12711610093578063ecb5c6691161006e578063ecb5c6691461043b578063f207564e14610463578063f62d188814610476578063ffa1ad7414610489575f5ffd5b8063e0e3e127146103db578063e636441c146103fa578063e688e8081461040d575f5ffd5b8063cbcf252a116100c3578063cbcf252a1461037a578063ce91aede146103a1578063d4de7260146103b4575f5ffd5b80637fe627bb1461034d5780638da5cb5b14610355578063a6f9dae114610367575f5ffd5b8063218fda541161015357806339a0c6f91161012e57806339a0c6f914610317578063656762cd1461032a5780636c0360eb1461033257806378b88f571461033a575f5ffd5b8063218fda54146102bd57806338e58999146102dd5780633998fdd3146102f0575f5ffd5b806317a68dd81161018357806317a68dd8146102545780631a8d9066146102695780631c5436c11461029e575f5ffd5b806309a76b52146101a9578063134e18f4146101c5578063150b7a0214610204575b5f5ffd5b6101b260025481565b6040519081526020015b60405180910390f35b6101ec7f000000000000000000000000000000000000000000000000000000000000000081565b6040516001600160a01b0390911681526020016101bc565b6102236102123660046116d3565b630a85bd0160e11b95945050505050565b6040517fffffffff0000000000000000000000000000000000000000000000000000000090911681526020016101bc565b61026761026236600461176c565b6104ad565b005b6102916040518060400160405280600981526020016865636f73797374656d60b81b81525081565b6040516101bc91906117bc565b6101b26102ac36600461176c565b60056020525f908152604090205481565b6102d06102cb3660046117ce565b610571565b6040516101bc91906117e5565b6102676102eb3660046118e7565b6108d2565b6101ec7f000000000000000000000000000000000000000000000000000000000000000081565b61026761032536600461194c565b610add565b610291610b83565b610291610bbd565b610267610348366004611986565b610c49565b610267610d3a565b5f546101ec906001600160a01b031681565b61026761037536600461176c565b610e1f565b6101ec7f000000000000000000000000000000000000000000000000000000000000000081565b6102916103af3660046117ce565b610ed8565b6101b27f03684189c8fb7a536ac4dbd4b7ad063c37db21bcd0f9c51fe45a4eb16359c16581565b6101b26103e93660046117ce565b60046020525f908152604090205481565b6102676104083660046119b4565b610ee9565b6102916040518060400160405280600f81526020016e73657276696365526567697374727960881b81525081565b610291604051806040016040528060098152602001681cd95c9d9a58d9525960ba1b81525081565b6101b26104713660046117ce565b610fb7565b61026761048436600461194c565b611088565b610291604051806040016040528060058152602001640302e312e360dc1b81525081565b5f546001600160a01b031633146104f0575f5460405163521eb56d60e11b81523360048201526001600160a01b0390911660248201526044015b60405180910390fd5b6001600160a01b0381166105175760405163d92e233d60e01b815260040160405180910390fd5b7f03684189c8fb7a536ac4dbd4b7ad063c37db21bcd0f9c51fe45a4eb16359c1658190556040516001600160a01b038216907f310ba5f1d2ed074b51e2eccd052a47ae9ab7c6b800d1fca3db3999d6a592ca03905f90a250565b606060016003541115610597576040516345f5ce8b60e11b815260040160405180910390fd5b60026003555f8290036105bd57604051637c946ed760e01b815260040160405180910390fd5b5f7f00000000000000000000000000000000000000000000000000000000000000006001600160a01b03166318160ddd6040518163ffffffff1660e01b8152600401602060405180830381865afa15801561061a573d5f5f3e3d5ffd5b505050506040513d601f19601f8201168201806040525081019061063e91906119f3565b6002549091505f81900361066557604051637c946ed760e01b815260040160405180910390fd5b5f6106708583611a1e565b90508281111561069457610685836001611a1e565b90506106918282611a31565b94505b845f036106b457604051637c946ed760e01b815260040160405180910390fd5b8467ffffffffffffffff8111156106cd576106cd611827565b6040519080825280602002602001820160405280156106f6578160200160208202803683370190505b5093505f80805b878110156108705761070f8186611a1e565b925060045f8481526020019081526020015f205487828151811061073557610735611a44565b60200260200101818152505086818151811061075357610753611a44565b60200260200101515f0361085c5761076a836110e3565b87828151811061077c5761077c611a44565b6020908102919091010152604051630846d5ff60e31b8152600481018490525f907f00000000000000000000000000000000000000000000000000000000000000006001600160a01b031690634236aff89060240160e060405180830381865afa1580156107ec573d5f5f3e3d5ffd5b505050506040513d601f19601f820116820180604052508101906108109190611a70565b50505050509150505f6001600160a01b0316816001600160a01b031614610856576108568489848151811061084757610847611a44565b60200260200101515f84611406565b50610868565b82935060019150610870565b6001016106fd565b508015610880575f600255610886565b60028390555b827fce05a7cf44fe9f781fa96adaba57b74bf4b82162efa121c08e77f051a23dae90826040516108ba911515815260200190565b60405180910390a25050600160035550919392505050565b600160035411156108f6576040516345f5ce8b60e11b815260040160405180910390fd5b60026003555f80610906336114fd565b60408051808201909152600981526865636f73797374656d60b81b60209182015286519087012091935091507f9c28c0e7f24473b02f05ded2aef7a9890c81a46c38fb26b940624dbb4dd591dd14806109aa575060408051808201909152600f81526e73657276696365526567697374727960881b6020918201528451908501207f8fa29d2b1417fad355e6cdf97780f39815321b25dc4658d5ffeb5cd8e8ece205145b806109fa57506040805180820190915260098152681cd95c9d9a58d9525960ba1b6020918201528451908501207f5d9528c6ab1a3e7aad38d879f4998d35944daa23aa8beb1e94dc69d556292f6a145b15610a1a57836040516324972d8960e21b81526004016104e791906117bc565b604051632333246d60e11b81526001600160a01b037f0000000000000000000000000000000000000000000000000000000000000000169063466648da90610a6a90859088908890600401611b09565b5f604051808303815f87803b158015610a81575f5ffd5b505af1158015610a93573d5f5f3e3d5ffd5b5050505081817fb1af9746c3644ad631ed60dc0efa60666df56656b7e243183e95c67c48f605328686604051610aca929190611b3d565b60405180910390a3505060016003555050565b5f546001600160a01b03163314610b1b575f5460405163521eb56d60e11b81523360048201526001600160a01b0390911660248201526044016104e7565b80515f03610b3c57604051637c946ed760e01b815260040160405180910390fd5b6001610b488282611bee565b507f6741b2fc379fad678116fe3d4d4b9a1a184ab53ba36b86ad0fa66340b1ab41ad81604051610b7891906117bc565b60405180910390a150565b604051602001610bab906020808252600490820152634f6c617360e01b604082015260600190565b60405160208183030381529060405281565b60018054610bca90611b6a565b80601f0160208091040260200160405190810160405280929190818152602001828054610bf690611b6a565b8015610c415780601f10610c1857610100808354040283529160200191610c41565b820191905f5260205f20905b815481529060010190602001808311610c2457829003601f168201915b505050505081565b60016003541115610c6d576040516345f5ce8b60e11b815260040160405180910390fd5b60026003555f80610c7d336114fd565b60405163168f7ad760e11b815291935091506001600160a01b037f00000000000000000000000000000000000000000000000000000000000000001690632d1ef5ae90610cd4908590339089908990600401611ca9565b5f604051808303815f87803b158015610ceb575f5ffd5b505af1158015610cfd573d5f5f3e3d5ffd5b505060405133925084915083907f8af2ba18448cbdcfbc2e491e535d3060559e86dd981d6a3a6fc9b85440ef7b3a905f90a4505060016003555050565b60016003541115610d5e576040516345f5ce8b60e11b815260040160405180910390fd5b60026003555f80610d6e336114fd565b604051633fddcf1960e01b81526004810183905291935091507f00000000000000000000000000000000000000000000000000000000000000006001600160a01b031690633fddcf19906024015f604051808303815f87803b158015610dd2575f5ffd5b505af1158015610de4573d5f5f3e3d5ffd5b50506040515f925084915083907f8af2ba18448cbdcfbc2e491e535d3060559e86dd981d6a3a6fc9b85440ef7b3a908490a450506001600355565b5f546001600160a01b03163314610e5d575f5460405163521eb56d60e11b81523360048201526001600160a01b0390911660248201526044016104e7565b6001600160a01b038116610e845760405163d92e233d60e01b815260040160405180910390fd5b5f805473ffffffffffffffffffffffffffffffffffffffff19166001600160a01b038316908117825560405190917f4ffd725fc4a22075e9ec71c59edf9c38cdeb588a91b24fc5b61388c5be41282b91a250565b6060610ee382611623565b92915050565b60016003541115610f0d576040516345f5ce8b60e11b815260040160405180910390fd5b6002600355336001600160a01b037f00000000000000000000000000000000000000000000000000000000000000001614610f8c5760405163312d21ff60e11b81523360048201526001600160a01b037f00000000000000000000000000000000000000000000000000000000000000001660248201526044016104e7565b5f838152600460205260409020548015610fac57610fac84828585611406565b505060016003555050565b5f60016003541115610fdc576040516345f5ce8b60e11b815260040160405180910390fd5b6002600355336001600160a01b037f0000000000000000000000000000000000000000000000000000000000000000161461105b5760405163312d21ff60e11b81523360048201526001600160a01b037f00000000000000000000000000000000000000000000000000000000000000001660248201526044016104e7565b505f818152600460205260408120549081900361107e5761107b826110e3565b90505b6001600355919050565b5f546001600160a01b0316156110b05760405162dc149f60e41b815260040160405180910390fd5b600160028190556110c18282611bee565b50505f805473ffffffffffffffffffffffffffffffffffffffff191633179055565b604080516003808252608082019092525f91829190816020015b60408051808201909152606080825260208201528152602001906001900390816110fd579050506040805160808101825260098183019081526865636f73797374656d60b81b6060830152815290519192509060208083019161117991016020808252600490820152634f6c617360e01b604082015260600190565b604051602081830303815290604052815250815f8151811061119d5761119d611a44565b60209081029190910181019190915260408051608081018252600f8183019081526e73657276696365526567697374727960881b6060830152815281516001600160a01b037f000000000000000000000000000000000000000000000000000000000000000016818501529092830191016040516020818303038152906040528152508160018151811061123357611233611a44565b60200260200101819052506040518060400160405280604051806040016040528060098152602001681cd95c9d9a58d9525960ba1b81525081526020018460405160200161128391815260200190565b604051602081830303815290604052815250816002815181106112a8576112a8611a44565b60200260200101819052505f6112bd84611623565b604051634752114360e11b81529091506001600160a01b037f00000000000000000000000000000000000000000000000000000000000000001690638ea422869061130e9084908690600401611cd6565b6020604051808303815f875af115801561132a573d5f5f3e3d5ffd5b505050506040513d601f19601f8201168201806040525081019061134e91906119f3565b604051633fddcf1960e01b8152600481018290529093507f00000000000000000000000000000000000000000000000000000000000000006001600160a01b031690633fddcf19906024015f604051808303815f87803b1580156113b0575f5ffd5b505af11580156113c2573d5f5f3e3d5ffd5b5050505f858152600460205260408082208690555185925086917fed3b0677b72f7c613d36efedb855a37500f282c148335826c86ee2525c15139191a35050919050565b6001600160a01b038216156114a0576001600160a01b038281165f908152600560205260408082209190915551633fddcf1960e01b8152600481018590527f000000000000000000000000000000000000000000000000000000000000000090911690633fddcf19906024015f604051808303815f87803b158015611489575f5ffd5b505af115801561149b573d5f5f3e3d5ffd5b505050505b6001600160a01b038181165f81815260056020908152604091829020879055905192851683529091859187917f2c7dd77bcd60a4bc27c783b05de7bf78f9d8494bb5a0a028e75a8a02bf1f3f04910160405180910390a450505050565b6001600160a01b0381165f908152600560205260408120549081810361153657604051637c946ed760e01b815260040160405180910390fd5b60408051808201825260098152681cd95c9d9a58d9525960ba1b602082015290516365a3ccf960e11b81525f916001600160a01b037f0000000000000000000000000000000000000000000000000000000000000000169163cb4799f2916115a391879190600401611d72565b5f60405180830381865afa1580156115bd573d5f5f3e3d5ffd5b505050506040513d5f823e601f3d908101601f191682016040526115e49190810190611d8a565b905080515f0361160757604051637c946ed760e01b815260040160405180910390fd5b8080602001905181019061161b91906119f3565b915050915091565b6060600161163083611657565b604051602001611641929190611dff565b6040516020818303038152906040529050919050565b6060815f0361167d5750506040805180820190915260018152600360fc1b602082015290565b604e6040519150808252608082016040525b82156116ad57600a80840660300182840152909204915f190161168f565b604e8190039101908152919050565b6001600160a01b03811681146116d0575f5ffd5b50565b5f5f5f5f5f608086880312156116e7575f5ffd5b85356116f2816116bc565b94506020860135611702816116bc565b935060408601359250606086013567ffffffffffffffff811115611724575f5ffd5b8601601f81018813611734575f5ffd5b803567ffffffffffffffff81111561174a575f5ffd5b88602082840101111561175b575f5ffd5b959894975092955050506020019190565b5f6020828403121561177c575f5ffd5b8135611787816116bc565b9392505050565b5f81518084528060208401602086015e5f602082860101526020601f19601f83011685010191505092915050565b602081525f611787602083018461178e565b5f602082840312156117de575f5ffd5b5035919050565b602080825282518282018190525f918401906040840190835b8181101561181c5783518352602093840193909201916001016117fe565b509095945050505050565b634e487b7160e01b5f52604160045260245ffd5b604051601f8201601f1916810167ffffffffffffffff8111828210171561186457611864611827565b604052919050565b5f67ffffffffffffffff82111561188557611885611827565b50601f01601f191660200190565b5f82601f8301126118a2575f5ffd5b8135602083015f6118ba6118b58461186c565b61183b565b90508281528583830111156118cd575f5ffd5b828260208301375f92810160200192909252509392505050565b5f5f604083850312156118f8575f5ffd5b823567ffffffffffffffff81111561190e575f5ffd5b61191a85828601611893565b925050602083013567ffffffffffffffff811115611936575f5ffd5b61194285828601611893565b9150509250929050565b5f6020828403121561195c575f5ffd5b813567ffffffffffffffff811115611972575f5ffd5b61197e84828501611893565b949350505050565b5f5f60408385031215611997575f5ffd5b82359150602083013567ffffffffffffffff811115611936575f5ffd5b5f5f5f606084860312156119c6575f5ffd5b8335925060208401356119d8816116bc565b915060408401356119e8816116bc565b809150509250925092565b5f60208284031215611a03575f5ffd5b5051919050565b634e487b7160e01b5f52601160045260245ffd5b80820180821115610ee357610ee3611a0a565b81810381811115610ee357610ee3611a0a565b634e487b7160e01b5f52603260045260245ffd5b805163ffffffff81168114611a6b575f5ffd5b919050565b5f5f5f5f5f5f5f60e0888a031215611a86575f5ffd5b87516bffffffffffffffffffffffff81168114611aa1575f5ffd5b6020890151909750611ab2816116bc565b60408901519096509450611ac860608901611a58565b9350611ad660808901611a58565b9250611ae460a08901611a58565b915060c088015160ff81168114611af9575f5ffd5b8091505092959891949750929550565b838152606060208201525f611b21606083018561178e565b8281036040840152611b33818561178e565b9695505050505050565b604081525f611b4f604083018561178e565b8281036020840152611b61818561178e565b95945050505050565b600181811c90821680611b7e57607f821691505b602082108103611b9c57634e487b7160e01b5f52602260045260245ffd5b50919050565b601f821115611be957805f5260205f20601f840160051c81016020851015611bc75750805b601f840160051c820191505b81811015611be6575f8155600101611bd3565b50505b505050565b815167ffffffffffffffff811115611c0857611c08611827565b611c1c81611c168454611b6a565b84611ba2565b6020601f821160018114611c4e575f8315611c375750848201515b5f19600385901b1c1916600184901b178455611be6565b5f84815260208120601f198516915b82811015611c7d5787850151825560209485019460019092019101611c5d565b5084821015611c9a57868401515f19600387901b60f8161c191681555b50505050600190811b01905550565b8481526001600160a01b0384166020820152826040820152608060608201525f611b33608083018461178e565b604081525f611ce8604083018561178e565b828103602084015280845180835260208301915060208160051b840101602087015f5b83811015611d6457601f198684030185528151805160408552611d31604086018261178e565b9050602082015191508481036020860152611d4c818361178e565b60209788019790955093909301925050600101611d0b565b509098975050505050505050565b828152604060208201525f61197e604083018461178e565b5f60208284031215611d9a575f5ffd5b815167ffffffffffffffff811115611db0575f5ffd5b8201601f81018413611dc0575f5ffd5b8051611dce6118b58261186c565b818152856020838501011115611de2575f5ffd5b8160208401602083015e5f91810160200191909152949350505050565b5f5f8454611e0c81611b6a565b600182168015611e235760018114611e3857611e65565b60ff1983168652811515820286019350611e65565b875f5260205f205f5b83811015611e5d57815488820152600190910190602001611e41565b505081860193505b50505083518060208601835e5f910190815294935050505056fea264697066735822122099b5dbe33ad780aeb91c86e452b175374ec305a77a4498378deee8e42e01bb8464736f6c634300081e0033",
    "linkReferences": {}
  },
  "methodIdentifiers": {
    "ECOSYSTEM_METADATA_KEY()": "1a8d9066",
    "ECOSYSTEM_METADATA_VALUE()": "656762cd",
    "PROXY_IDENTITY_REGISTRY_BRIDGER()": "d4de7260",
    "SERVICE_ID_METADATA_KEY()": "ecb5c669",
    "SERVICE_REGISTRY_METADATA_KEY()": "e688e808",
    "VERSION()": "ffa1ad74",
    "baseURI()": "6c0360eb",
    "changeBaseURI(string)": "39a0c6f9",
    "changeImplementation(address)": "17a68dd8",
    "changeOwner(address)": "a6f9dae1",
    "getAgentURI(uint256)": "ce91aede",
    "identityRegistry()": "134e18f4",
    "initialize(string)": "f62d1888",
    "linkServiceIdAgentIds(uint256)": "218fda54",
    "mapMultisigAgentIds(address)": "1c5436c1",
    "mapServiceIdAgentIds(uint256)": "e0e3e127",
    "onERC721Received(address,address,uint256,bytes)": "150b7a02",
    "owner()": "8da5cb5b",
    "register(uint256)": "f207564e",
    "serviceManager()": "3998fdd3",
    "serviceRegistry()": "cbcf252a",
    "setAgentWallet(uint256,bytes)": "78b88f57",
    "setMetadata(string,bytes)": "38e58999",
    "startLinkServiceId()": "09a76b52",
    "unsetAgentWallet()": "7fe627bb",
    "updateAgentWallet(uint256,address,address)": "e636441c"
  },
  "id": 0
}